:100000000C94E9030C9411040C9411040C94110445
:100010000C9411040C9411040C9411040C9411040C
:100020000C9411040C9411040C94C5260C943727DD
:100030000C9411040C9411040C9411040C941104EC
:100040000C9411040C9411040C9411040C941104DC
:100050000C9411040C9411040C9411040C94961C2F
:100060000C9411040C9411040C9411040C941104BC
:100070000C9411040C9411040C9411040C941104AC
:100080000C9411040C9411040C9411040C9411049C
:100090000C9411040C9411040C9411040C9411048C
:1000A0000C9411040C9411040C9411049912A012D4
:1000B000AE12A712B512BC12D112C312D812CA12B4
:1000C000162DB22D3A2EB12ECE2E6E2E452EF12E9D
:1000D000084AD73B3BCE016E84BCBFFDC12F3D6CAF
:1000E00074319ABD56833DDA3D00C77F11BED9E415
:1000F000BB4C3E916BAAAABE000000803F05A84CF5
:10010000CDB2D44EB93836A9020C50B991868808C0
:100110003CA6AAAA2ABE000000803F0038207468CE
:10012000652066696E616C20636F756E74646F77AD
:100130006E0037206F68206F680036206B65657031
:100140002073686F6F74696E67003520676574741B
:10015000696E67206269676765720034207468653C
:100160007920617265206576657279776865726558
:10017000003320686172616B6972690032207468B3
:100180006579206B65657020636F6D696E670031FE
:1001900020636F756E74657261747461636B004186
:1001A000C3E77FFFFFB3113C3676FF9FFFB13E3CB4
:1001B0006C6EFFF9FF8D7CC6E4D7DCDFFF7E006349
:1001C00027EB3BFBFF7E00C366FF66E7FF7E3C1A22
:1001D0003E7777F7B69E06587CEEEEEF6D7960E7D6
:1001E000E7FFE7FF7E3C0082C3E7FEFFFFCD88000C
:1001F0001C76BE7EB61C005A5AFFFFE7FFE742009E
:100200001CB67EBE761C0000183C7E5A5A42000086
:10021000243C7E7E5A66000018247E7E5A00000C24
:10022000FE00F880F828380E3F63C3C3633F0E3CDE
:1002300066DBA5A5DB663C6E4B58592E8C512B0C0A
:100240004A694429A51044000034524428000000A3
:10025000001058541000008F017C0171015B014AAD
:10026000013A0132011C0173636F7265007374619E
:100270006765001006000000031A04280000000E45
:1002800007010000031905280000000C0802000007
:100290000418062D0000000B0A0300000417072DA8
:1002A000010C080A06010100051608320000000AC8
:1002B000080202010515082D020A080A09030301B4
:1002C0000614083C0000000A0A030401061308464D
:1002D000030A0AF6DE5924E7CEE59E92F2F39E93D6
:1002E000DEE592F7DEF79EF7DAD7DEF24ED6DCF3E4
:1002F0004EF348F2DEB7DA4924492CB75A924EF64B
:10030000DABEDAF6DEF7C8F6F2F7EAF39EE924B6CB
:10031000DEB6D4B7FEB55AB7A4E54E4281C3BDFFE1
:10032000E77E5A8142C3BDFFE77E5A081099BDE7B8
:10033000BDBD18100899BDE7BDBD184A105A7EE72B
:10034000FFBD99104A5A7EE7FFBD99465245595262
:100350000054484F52004F44494E4F0001020408D8
:1003600010204080D5F08D14A1C881CFD9F1AF20E5
:1003700000535045454420204100504F57455220DE
:10038000204300535045454420204300504F5745DB
:100390005220204100535045454420204200504FF8
:1003A00057455220204200736869702073656C6560
:1003B0006374696F6E006F6666006F6E0056203161
:1003C0002E31006869676873636F726500736F75BB
:1003D0006E640068656C7000696E74726F0073748F
:1003E00061727400FFFFFF181818181818FFFFFF3C
:1003F000003F7FFFC0C0C0C0C0C0FFFFFF00FFFFC5
:10040000FF070606FEFEFE060603FFFFFF0080C094
:10041000F17F3F3F313F3F7EFCF0C000FFFFFF0711
:100420000E1C3870E0FFFFFF00FFFFFF0007070111
:100430000101FFFFFF0101010707000103070E1C77
:10044000F8F81C0E07030100000000000000000087
:100450000000FEFEFE36363676F6F6DE9E1E00FE06
:10046000FEFEB6B6B6B6B6B686C6C60006060E1E02
:100470007CF0E0C0E0FC3E1E060600FEFEFEB6B6C6
:10048000B6B6B6B686C6C600FEFEFE0E1C3870E0D6
:10049000C0FEFEFE00FEFEFE86868686B6B6F6F638
:1004A000F600FEFEFEB6B6B6B6B6B686C6C6000006
:1004B0000000F0F0303030E0E000F0F0303030306C
:1004C0000101010000000000010101010001010122
:1004D0000101010101010101010000000000000013
:1004E0000101010000000000000101010101010102
:1004F00001010101010001010100000000000101F2
:1005000001010001010101010101010101010100DD
:1005100001010101010101010101010100000000CF
:1005200003030303030101000303030303034E4F0B
:10053000204849474853434F5245004E4F204849B1
:10054000474853434F5245004E4F20484947485370
:10055000434F52450053434F5245005348495000C2
:100560004C4556454C004849474853434F52450077
:1005700044455354524F59205448454D20414C4C0A
:1005800000434F4C4C454354204C49564553202082
:10059000424F4D42532020534849454C445300415B
:1005A00020414E4420422020424F4D420042202014
:1005B0002020202020204348414E474520574541D8
:1005C000504F4E0041202020202020202053484F13
:1005D0004F540033204C49564553203320424F4D51
:1005E00042530057414E545320544F2044455354D6
:1005F000524F59205448454D20414C4C004F4E45D8
:100600002053494E474C45204845524F002020205A
:1006100042555400544F2044455354524F5920459D
:10062000564552595448494E47005448455920416F
:10063000524520434F4D494E472046524F4D20468C
:1006400041522041574159004220204D454E55000E
:1006500041202053415645204849474853434F5273
:10066000450053434F52453A00FFFFFFC3C3C3C386
:10067000DBDBFBFBFB0080C0F17F3F3F313F3F7E78
:10068000FCF0C000FFFFFF070606FEFEFE060603A5
:10069000FFFFFF00FFFFFFDBDBDBDBDBDBC3E3E3B5
:1006A00000000000FFFFFFC3C3C3C3C3C3FFFFFFBE
:1006B000000303070F3E78F0E0F07E1F0F030300F6
:1006C000FFFFFFDBDBDBDBDBDBC3E3E300FFFFFF85
:1006D0001B1B1B3B7BFBEFCF8F4220204D454E5514
:1006E0000041202053415645204849474853434F35
:1006F00052450053434F52453A00464F52204E4F09
:1007000057000303070F3E78F0E0F07E1F0F03034E
:1007100000FFFFFF00FFFFFFC3C3C3C3C3C3C3C3C7
:10072000C3000707010101FFFFFF010101070700E7
:10073000FFFFFFC3C3C3C3C3C3FFFFFF00FFFFFF30
:100740001B1B1B3B7BFBEFCF8F000103070E1CF82D
:10075000F81C0E07030100DFDFDF040309041201A8
:100760000002EF0201404123368000010102030133
:1007700041726475696E6F204C4C43004172647520
:10078000696E6F204C656F6E6172646F00080B00BC
:100790000202020100090400000102020000052417
:1007A00000100105240101010424020605240600AD
:1007B000010705810310004009040100020A00003E
:1007C0000007050202400000070583024000000008
:1007D0008D3011241FBECFEFDAE0DEBFCDBF12E0B7
:1007E000A0E0B1E0E6E0FBE602C005900D92AA3978
:1007F000B107D9F727E0AAE9B2E001C01D92A831FC
:10080000B207E1F713E0C9EED3E004C02197FE017F
:100810000E947635C83ED107C9F70E949B2B0C94E5
:1008200081350C9400002F923F924F925F926F920D
:100830007F928F929F92AF92BF92CF92DF92EF9270
:10084000FF920F931F93CF93DF93CDB7DEB7C056C0
:10085000D1090FB6F894DEBF0FBECDBF02E010E0A5
:1008600080910F018370181708F5E02EF12C6701B5
:1008700022E0C20ED11C43E060E070E0C6010E949D
:10088000201F43E061E070E0C7010E94201F43E0A9
:1008900062E070E0C7010E94201F43E063E070E067
:1008A000C6010E94201F1F5F0A5FDACF08E110E037
:1008B00080910F018C7086958695181708F5E02EAB
:1008C000F12C67013FEFC31AD30A42E060E070E009
:1008D000C6010E94201F44E061E070E0C7010E9451
:1008E000201F44E062E070E0C7010E94201F42E048
:1008F00063E070E0C6010E94201F1F5F0A5FD8CF2F
:1009000040E06EE28DE692E00E94A41E8091080114
:1009100040E064E490E00E94CD1E40E060E587E6A0
:1009200092E00E94A41E40E068E68091060190914A
:1009300007010E94CD1E80910101811133C00E94E8
:100940008A1C0091080101504CE0049F8001112491
:10095000F801E558FD4FF49028EE33E040E050E018
:100960000E94C5318091020190910301A091040180
:10097000B0910501BA01A901481B590B6A0B7B0B09
:100980008F2D90E0A0E0B0E084179507A607B70789
:1009900008F07CC0F801E458FD4FE491EE2351F0DB
:1009A00084E009C0843051F08530C9F48091D701CA
:1009B00087FD6CC081E08093010158C08091810166
:1009C000811164C080918201811160C08091830196
:1009D00081115CC08091D70187FF92C057C08130E0
:1009E00089F480918101811151C08091820181112E
:1009F0004DC080918301811149C08091D70187FF4B
:100A000029C144C0823071F5E0910801E150F0E065
:100A1000EE0FFF1FE95AFD4F8591949148E062E087
:100A20000E94A41E0E948A1C28EE33E040E050E0A1
:100A30000E94C5318091020190910301A0910401AF
:100A4000B091050179018A01E81AF90A0A0B1B0B1A
:100A5000D801C7010597A105B105C0F083E08093D7
:100A6000010114C0833091F4109201010E948A1C8C
:100A700028EE33E040E050E00E94C53120930201AF
:100A80003093030140930401509305010E94E51C3B
:100A900083FF23C080910D0190910E012AE030E088
:100AA000B9010E946235462F80910B0190910C0193
:100AB000B9010E946235862F642F0E942A23882361
:100AC00061F082E080939A0280E4809390008FE648
:100AD00094E090939900809398000E94E51C83FF16
:100AE00030C184E00E94CD24882309F42AC180917A
:100AF0000101882309F4E9C0853009F022C1E5C06D
:100B00000E948A1C28EE33E040E050E00E94C5318C
:100B10008091020190910301A0910401B09105011F
:100B200079018A01E81AF90A0A0B1B0BD801C701DF
:100B30000497A105B10508F4A9CFE0910801E1509F
:100B40005CE0E59FF0011124E458FD4FE4918E2F05
:100B500080688093D701E770E230E1F0E330D9F1AB
:100B6000E13009F070C084E78093D5018CE1809377
:100B7000D60100E021E04CE164E788ED91E00E94BD
:100B8000A1294091D601485F22E06091D5018CED0A
:100B900091E057C08CE68093D50182E28093D60124
:100BA00001E024E047E264E788ED91E00E94A1299A
:100BB00000E023E04091D6016091D5018CED91E0F9
:100BC0000E94A1294091D601465F25E06091D501A0
:100BD00080EE91E036C08CE68093D5018CE1809365
:100BE000D60101E026E044E264E788ED91E00E944E
:100BF000A1296091D501685F00E028E04091D6010D
:100C00008CED91E00E94A1294091D601405F609156
:100C1000D501685F2AE080EE91E00E94A129409111
:100C2000D6014D5F27E06091D50184EE91E00E94EE
:100C3000A1294091D601435F29E06091D50188EE5A
:100C400091E00E94A1298091D701877E8093D701EE
:100C500085E005CF0E948A1C28EE33E040E050E09A
:100C60000E94C5318091020190910301A09104017D
:100C7000B091050179018A01E81AF90A0A0B1B0BE8
:100C8000D801C7010397A105B10508F4FFCE82E0A2
:100C9000809301010E948A1C28EE33E040E050E07E
:100CA0000E94C53120930201309303014093040157
:100CB00050930501809108018F5F8093080189306E
:100CC00008F4E4CE86E00C94A61940910F01242F7D
:100CD0002C7030E0359527953595279521153105F0
:100CE000B1F100910D0110910E0180910B019091D5
:100CF0000C015091800157FD2AC03FED30938001D7
:100D0000EAE0F0E0BF010E94623560937E01C80115
:100D1000BF010E94623560937F0183E080939A0255
:100D200080E4809390008FE493EC909399008093FB
:100D300098002150220F220F437F242B20930F0174
:100D400006C00E94E51C83FD02C00C9435130E946E
:100D5000E51C87FF23C080910F0190E066E0959528
:100D600087956A95E1F7813021F0823021F42EE0F9
:100D700003C026E001C02AE080910D0190910E0190
:100D80008D3391055CF0821B91098C33910514F42D
:100D90008CE390E090930E0180930D010E94E51C7E
:100DA00084FF21C080910F0190E056E095958795D2
:100DB0005A95E1F7813021F0823021F42EE003C012
:100DC00026E001C02AE080910D0190910E01820F72
:100DD000911D813302E0900714F080E392E090933C
:100DE0000E0180930D010E94E51C85FF27C08091B4
:100DF0000F0190E046E0959587954A95E1F781309F
:100E000021F0823021F48EE003C086E001C08AE048
:100E100020910B0130910C01121613067CF490E026
:100E2000281739073CF0281B390B30930C0120930D
:100E30000B0104C010920C0110920B010E94E51CE2
:100E400086FF21C080910F0190E036E0959587954F
:100E50003A95E1F7813021F0823021F42EE003C091
:100E600026E001C02AE080910B0190910C01820FD5
:100E7000911D813B14E0910714F080EB94E0909376
:100E80000C0180930B0123E131E0E1E1F1E0A901E4
:100E9000DA018C9187FF12C09081943040F4108267
:100EA000CA010197DC011C92DA011C9207C0880F6D
:100EB0008295869586958370981B90834D5F5F4FD2
:100EC0003396B1E0E332FB0719F78091AA069091BF
:100ED000AB066FE070E00E944E350097B9F5F9015E
:100EE000408147FD2DC08C01000F111F800F911F05
:100EF0008C010F5F1E4F80E8D80150968C9367E3FA
:100F000070E080E090E00E940A1CDC01CB010796B3
:100F1000A11DB11DF801818B62E070E080E090E0DE
:100F20000E940A1CDC01CB010196A11DB11D682F96
:100F30006295660F607E6068D80152966C9306C019
:100F400001962D5F3F4F8630910549F60E9406239A
:100F50000E94B0228091800187FF0CC08150809355
:100F600080018F7339F410927E0110927F018FE11E
:100F7000809380010091AA061091AB06C8016FE032
:100F800070E00E944E359C01EAE2F2E0908197FF0A
:100F900014C02115310511F49F5F90839081892F32
:100FA0008F70990F929596959770981730F4DF018E
:100FB00012971C9211961C9210823396B2E0EA3579
:100FC000FB0721F78091590287FF15C0C80163E034
:100FD00070E00E944E35892B71F490915A0299234A
:100FE00021F0915090935A0206C010925A0210922A
:100FF0005802109259022091590227FF11C0C801CE
:101000006EE170E00E944E35892B51F4822F8F7172
:1010100011F40C944B138150207E282B20935902FD
:1010200080910D0190910E01EAE0F0E0BF010E9475
:1010300062359B0180910B0190910C01BF010E94D0
:10104000623528966FAF289780918401882319F024
:1010500081508093840110928101109282016090EE
:10106000AA067090AB06E5E8F1E02596FFAFEEAF7B
:10107000259709E811E063961FAF0EAF639748E824
:1010800051E061965FAF4EAF6197A6E88A2EA1E06E
:101090009A2EB7E8AB2EB1E0BB2E7A016F01B901F1
:1010A00077272B967FAF6EAF2B97D6018C9185FF5C
:1010B0009CC08295880F880F807C90E0F6E0959523
:1010C0008795FA95E1F7823009F460C0833009F41E
:1010D0007BC0F701813071F0808181508083811164
:1010E00084C01C921082D8011C92F4011082D50198
:1010F0001C927BC0808181508083811104C0D60105
:101100001C9210826CC0D5018C91B301680F711DC7
:1011100080E090E00E94823320E030E040E05FE336
:101120000E9483342CED3FE049E450E40E94833474
:1011300020E030E044E052E40E94DA320E94F034D1
:1011400020E030E040EC50E40E9483341B012C018D
:10115000F401608170E080E090E00E9484339B01A4
:10116000AC01C201B1010E94F7310E9453336630D5
:1011700018F0D8016C9303C026E0F8012083D80151
:101180008C91893390F1E8E3EC932FC0D7018C91D7
:10119000823008F182508C932896BFAD2897B817FB
:1011A00020F5F8018081282F30E02F5F3F4F2B96EC
:1011B0004EAD5FAD2B97241735071CF48F5F8083EE
:1011C00014C08150D80105C0D8018C91882319F032
:1011D00081508C930AC0F6011082D7011C92F8014D
:1011E0001082D4011C92F5011082D6018C9185FFEA
:1011F00015C0880F880F880F90E0880F892F881FEF
:10120000990B892B31F4809181018F5F809381014B
:1012100005C0809182018F5F80938201B5E0CB0E83
:10122000D11C0B5F1F4FE5E0EE0EF11CF5E08F0EB9
:10123000911C25E0A20EB11C31E0093D130709F015
:1012400034CF9091D70197FF67C3892F8770823081
:1012500009F46DC0833009F44BC1813009F05CC3DF
:10126000892F887109F058C38091DB0187FD04C084
:101270002091DD012093D6013091D6012091DF012C
:1012800096FD16C031503093D60187FF05C080917E
:10129000D90181508093D90127FF05C08091DD01DC
:1012A00081508093DD01373010F40C94531332C019
:1012B0003F5F3093D60187FF05C09091D9019F5FB2
:1012C0009093D90127FF05C09091DD019F5F909316
:1012D000DD01082E000C990B8827990F881F99278C
:1012E00053E0880F991F5A95E1F7830F911D022E45
:1012F000000C330B2227330F221F332773E0220FFA
:10130000331F7A95E1F7820F931F8034910514F013
:101310000C94531363E370E080E090E00E940A1C99
:10132000672B682B692B11F40C945313F5C2409171
:10133000DF0147FD0AC08091D9018093D6018091D9
:10134000E30187FD02C00C945A13292F287130E065
:1013500003E0359527950A95E1F7222321F0213006
:1013600009F465C0D9C28091D6013091DB0120918A
:10137000E30196FD1BC081508093D60137FF05C065
:101380009091D90191509093D90147FF05C0909158
:10139000DD0191509093DD0127FF05C09091E1019F
:1013A00091509093E101873080F125C08F5F809349
:1013B000D60137FF05C09091D9019F5F9093D90165
:1013C00047FF05C09091DD019F5F9093DD0127FFEE
:1013D0000AC09091E1019F5F9093E10147FD02C037
:1013E0000C94601306C047FD02C00C94A0190C9425
:1013F00060138E3250F463E370E080E090E00E946E
:101400000A1C672B682B692B31F49091D70180E47B
:1014100089278093D7016CE271E080E090E00E9420
:101420000A1C672B682B692B09F076C223C1209117
:10143000D50196FD20C0233008F42DC223502093FF
:10144000D5018091DB0187FF05C08091D8018350D1
:101450008093D80147FF05C08091DC0183508093C1
:10146000DC018091E30187FF57C28091E001835046
:101470008093E00151C22F5F2093D5018091DB0161
:1014800087FF05C08091D8018F5F8093D80147FF07
:1014900005C08091DC018F5F8093DC018091E301C6
:1014A00087FF07C08091E0018F5F8093E00140E0FB
:1014B00003C047FDFCCF41E050E045595F4F30E0AD
:1014C000421753070CF028C280E498279093D70165
:1014D00062E070E080E090E00E940A1C672B682BBD
:1014E000692B09F019C28091D701877E0C9457139C
:1014F0002091DF018091E70127FD04C087FD02C034
:101500000C94661387FD06C03091EB0137FD02C0D5
:101510000C946C13492F487150E013E05595479592
:101520001A95E1F7413009F4CCC020F0423009F4BB
:10153000FCC0F2C16091D6013091DB015091E30112
:101540004091EB0196FD2BC061506093D60137FFAF
:1015500005C09091D90191509093D90127FF05C002
:101560009091DD0191509093DD0157FF05C090915E
:10157000E10191509093E10187FF05C08091E50161
:1015800081508093E50147FF05C08091E9018150BA
:101590008093E901673010F40C94721355C06F5FAB
:1015A0006093D60137FF05C09091D9019F5F90935A
:1015B000D90127FF05C09091DD019F5F9093DD0168
:1015C00057FF05C09091E1019F5F9093E10187FF74
:1015D00005C09091E5019F5F9093E50147FF05C02D
:1015E0009091E9019F5F9093E90170E0685F7F4F00
:1015F00027FD0DC0282F880F330B2227330F221F02
:101600003327B3E0220F331FBA95E1F702C028E079
:1016100030E0620F731F57FD0EC0042E000C550BF7
:101620009A012227330F221F3327F3E0220F331FA3
:10163000FA95E1F702C028E030E0260F371F20348A
:10164000310514F00C94721363E370E080E090E0D5
:101650000E940A1C672B682B692B11F40C947213DF
:101660006CE271E080E090E00E940A1C672B682B1E
:10167000692B31F48091D701877E88600C945713D1
:101680006CE271E080E090E00E940A1C672B682BFE
:10169000692B09F041C18091D701877E80618093D9
:1016A000D70162E070E080E090E00E940A1C672BA6
:1016B000682B692B09F030C19091D70180E20C941E
:1016C00056133091D50196FDE9C0333008F4E3C0DC
:1016D00033503093D5019091DB0197FF05C0909175
:1016E000D80193509093D80127FF05C09091DC0159
:1016F00093509093DC019091E30197FF05C0909186
:10170000E00193509093E00187FF05C08091E401D0
:1017100083508093E4018091EB0187FFFDC08091AD
:10172000E80183508093E801F7C03091D50196FD20
:10173000B5C0333008F4AFC033503093D5011091A9
:10174000DB0117FF05C03091D80133503093D80129
:1017500027FF05C03091DC0133503093DC01B0919C
:10176000E301B7FF05C03091E00133503093E00151
:1017700087FF05C03091E40133503093E401A0911C
:10178000EB01A7FF05C03091E80133503093E80129
:101790003091D60195FF28C0373008F4BDC03150D4
:1017A0003093D60117FF05C09091D90191509093C5
:1017B000D90127FF05C09091DD0191509093DD0183
:1017C000B7FF05C09091E10191509093E10187FF2F
:1017D00005C08091E50181508093E501A7FF9CC081
:1017E0008091E901815054C0E32FF0E0389627FD45
:1017F0000EC0482F082E000C550B4427550F441FD0
:10180000552773E0440F551F7A95E1F702C048E071
:1018100050E0E40FF51FB7FD0FC06A2F0A2E000C31
:10182000770BAB014427550F441F552793E0440F16
:10183000551F9A95E1F702C048E050E04E0F5F1F38
:10184000403451050CF468C03F5F3093D60117FF58
:1018500005C09091D9019F5F9093D90127FF05C0E2
:101860009091DD019F5F9093DD01B7FF05C09091DE
:10187000E1019F5F9093E10187FF05C08091E50141
:101880008F5F8093E501A7FF47C08091E9018F5FDB
:101890008093E90141C080E498273CC03F5F3093CA
:1018A000D5014091DB0147FF05C04091D8014F5F52
:1018B0004093D80127FF05C02091DC012F5F2093C2
:1018C000DC012091E30127FF05C02091E0012F5F9B
:1018D0002093E00187FF05C02091E4012F5F209352
:1018E000E4012091EB0127FF07C02091E8012F5F61
:1018F0002093E80140E003C087FDFCCF41E050E0C9
:1019000045595F4F232F30E0421753072CF480E4F2
:101910009827977E9093D7011092830141EF51E071
:101920002B965FAF4EAF2B976CEE71E029967FAF91
:101930006EAF2997F0EF6F2EF1E07F2E8B011A0129
:10194000AAE04A2E512CD101BC912696BFAF269712
:10195000B0FFA5C0F301608170E080E090E00E94DC
:1019600084332CED3FE049E450E40E94833420E0CE
:1019700030E044E353E40E94DA324B015C010E9400
:10198000D5322F966CAF7DAF8EAF9FAF2F97D8011A
:101990006D917C91072E000C880B990B0E9484336B
:1019A0006B017C0120E030E040E751E42F966CAD04
:1019B0007DAD8EAD9FAD2F970E9483349B01AC010E
:1019C000C701B6010E94F6310E944C33F8017183C1
:1019D0006083CB01B2010E946235662309F457C0CF
:1019E000E280F3802696BFAD2697C501B401B1FF12
:1019F00026C00E94F0344B015C01B701FF0C880B3C
:101A0000990B0E9484336B017C0120E030E040E7B9
:101A100051E4C501B4010E9483349B01AC01C701AC
:101A2000B6010E94F6310E944C33F8017383628341
:101A3000CB01B2010E946235611131C028C00E9401
:101A4000F0344B015C01B701FF0C880B990B0E942D
:101A500084336B017C0120E030E040E751E4C501B4
:101A6000B4010E9483349B01AC01C701B6010E94FE
:101A7000F7310E944C33D80113967C936E931297E2
:101A8000CB01B2010E946235613448F0F801118245
:101A9000108213821282D3011C92F1011082D101B3
:101AA0008C9180FF05C0809183018F5F80938301BB
:101AB000B6E02B0E311C0A5F1F4FE6E06E0E711C64
:101AC000F2E008321F0709F03ECF80910101811139
:101AD00011C68091800187FD48C0809108019091D6
:101AE000840191111DC08150E82EF12C0CE0809FE3
:101AF000C0011124FC01EC58FD4FD49020918101CC
:101B0000D21AFC01EA58FD4F049120918201021B78
:101B1000FC01E858FD4F1491D110F4C50111F2C534
:101B200080900D0190900E01E0900B01F0900C015F
:101B30000091080101508CE0089F80011124F801F8
:101B4000E758FD4FE4912E2F30E0F90131969F01C7
:101B5000FF0F440B550B60E070E0CB010E942E1C80
:101B6000672B682B692B09F4E9C500E010E0F80148
:101B7000EF5FFE4F828987FF0DC08091AA0680FD2E
:101B800009C0418950E0608970E021E087EA96E071
:101B90000E94ED1C0D5F1F4F0231110541F789E0D6
:101BA00091E00E94191A0E94EE219091800197FF06
:101BB0003AC060917F0180917E0170E090FF14C077
:101BC00048E290E00E94551F60917F0170E0809193
:101BD0007E0148E490E00E94551F60917F0170E013
:101BE00080917E0148E61CC040E290E00E94551FB3
:101BF00060917F0170E080917E0140E490E00E945E
:101C0000551F60917F0170E080917E0140E690E079
:101C10000E94551F60917F0170E080917E0140E835
:101C200090E00E94551F39E2C32E32E0D32E48E2E5
:101C3000E42E42E0F42EA12CB12CF501E65DFD4F1F
:101C4000808187FF3EC08295807F90E024E095955B
:101C500087952A95E1F78130910579F082309105D9
:101C600051F4D6016C9170E0F701808108E028E022
:101C700047E452E023C0833051F4D6016C9170E008
:101C8000F701808108E028E04FE452E017C084307B
:101C900051F4D6016C9170E0F701808108E028E0F2
:101CA0004FE352E00BC0853061F4D6016C9170E0D7
:101CB000F701808108E028E047E352E090E00E94CD
:101CC0003720F3E0AF0EB11C03E0C00ED11C13E0CF
:101CD000E10EF11C20E3A216B10409F0AECF809111
:101CE000AA0680FD31C08091590287FF2DC0880F60
:101CF00090E006E0959587950A95E1F7823071F0BE
:101D00008330B1F0813001F56091580270E080912C
:101D10005A0208E028E04FE152E013C060915802F7
:101D200070E080915A0208E028E04FE252E009C0DA
:101D30006091580270E080915A0208E028E047E282
:101D400052E090E00E9437208091590287FF6AC0DC
:101D50008091580290E020915A0230E03EAF2DAFC2
:101D600021969FAF8EAF219788E022968FAF229762
:101D700023968FAF23970E946729B22FA32FF42FAA
:101D8000E52FCB01EDACFEAC0FAD21961FAD219739
:101D900022962FAD229723963FAD23974B2F5A2F94
:101DA0006F2F7E2F0E94BE2A8823E1F18091590275
:101DB000880F90E016E0959587951A95E1F78230A7
:101DC00071F0833001F1813019F580910F01982F66
:101DD00093709330E9F09F5F8C7F892B11C0209125
:101DE0000F01822F8C7090E095958795959587953A
:101DF0008330910569F08F5F880F880F237F822BD6
:101E000080930F0105C080911001806880931001BC
:101E10008EE390E00E94E32110925A021092580241
:101E2000109259028091D70187FF44C16AEDC62EF6
:101E300061E0D62E78ED272E71E0372EE9ED8E2E5B
:101E4000E1E09E2EFBEDAF2EF1E0BF2EA8E06A2E62
:101E50008091D70187FD03C00AE010E0A3C2D6013C
:101E60007C90F5018081E82FEF71E150EA3028F491
:101E7000F0E0E559FD4F508001C0512C85FB442412
:101E800040F89091800197FF18C096FF16C087FF19
:101E900014C0F5E0F71538F045E0D4016C91F1017C
:101EA00080810E94BF29D6018C91863010F40C9459
:101EB000691885508C93BBEF7B0EF501808187FDFF
:101EC00005C080910F0185FFA0C0E1C008E211E0CC
:101ED00025961FAF0EAF259712E126961FAF2697C6
:101EE000252D30E065963FAF2EAF6597D5018C91DB
:101EF00087FF77C02596EEADFFAD259734972D96D9
:101F0000FFAFEEAF2D972596AEADBFAD25978C9167
:101F100087FF67C0F401808190E0D1012C9130E00F
:101F20003AAB29AB9CAB8BAB6DAA6EAA2D968EAD4E
:101F30009FAD2D970E94261EB22FA32FF42FE52FC1
:101F4000CB01E9A8FAA80BA91CA92DA93EA94B2FE2
:101F50005A2F6F2F7E2F0E94BE2A882309F441C07A
:101F60002596EEADFFAD259710811F70171538F03F
:101F700045E0D4016C91F10180810E94BF29D60116
:101F80008C91181720F4811B8C93711A23C0F101D6
:101F90001082D4011C92F6011082D5011C9280E7B8
:101FA00092E00E94E32180910601909107016596DD
:101FB000EEADFFAD65978E0F9F1F90930701809345
:101FC000060141100C948A180E94BB21882311F449
:101FD0000C948A18672D2D968EAD9FAD2D970E947B
:101FE000911E2696FFAD2697F1502696FFAF2697B5
:101FF00025960EAD1FAD25970B5F1F4F25961FAF82
:102000000EAF2597F11172CF5CCFD5018C9187FF70
:102010003EC0D4018C9190E0F101208130E03EA3DC
:102020002DA398A78FA369A66AA60E946729B22F3D
:10203000A32FF42FE52FCB01EDA0FEA00FA118A533
:1020400029A53AA54B2F5A2F6F2F7E2F0E94BE2A0B
:102050008823E9F00E945A25882311F40C948719EB
:1020600082E298E00E94E32180910F0180628093D8
:102070000F01809110018078886780931001F6012C
:102080008081853010F40C948E1884508083F4E0A5
:10209000CF0ED11C04E0200E311C14E0810E911CE7
:1020A00024E0A20EB11C3EEEC31631E0D30609F0C7
:1020B000CFCED2CE38E8A32E31E0B32E49E8C42EDD
:1020C00041E0D42E5AEA252E2596AEADBFAD259718
:1020D0005C90852D880F880F880F90E0880F892FDE
:1020E000881F990B8130910519F404E0302E02C04D
:1020F000332433942091800127FF2CC026FF2AC06F
:1021000055FE28C0813011F00C94AF1845E0F6015F
:102110006081D5018C910E94BF292596EEADFFAD5F
:102120002597608162956695669563706F5FCF01B4
:102130000E94091E882371F080E792E00E94E3214B
:102140008091060190910701830D911D90930701E5
:10215000809306012596AEADBFAD25978C9185FD88
:1021600005C080910F0185FF7EC0D7C05294569460
:10217000569413E051225394812C912CE32DF0E0DE
:102180002796FFAFEEAF27972596AEADBFAD25974B
:102190008C9185FF5FC0F401EC5DFE4F3F01F401BF
:1021A000EF5FFE4F47A047FE55C0CD010E94CD1DF9
:1021B000298F3A8F4B8F5C8F6D8F7E8FC3010E946A
:1021C000261EB22FA32FF42FE52FCB01E98CFA8C1A
:1021D0000B8D1C8D2D8D3E8D4B2F5A2F6F2F7E2FEB
:1021E0000E94BE2A8823B1F1142D1F70151590F09E
:1021F00061E971E080E090E00E940A1C672B682B87
:10220000692B09F0AFC780910F018370833009F00B
:10221000B9C7A8C7511A612F25968EAD9FAD2597D6
:102220000E94091E882391F080E792E00E94E3213A
:1022300080910601909107012796EEACFFAC27979D
:102240008E0D9F1D9093070180930601652DC3019C
:102250000E94911E05E0800E911C1AE581169104E2
:1022600009F092CF7ECF2596AEADBFAD25978C916C
:1022700085FF53C025968EAD9FAD25970E94CD1D3D
:102280002D873E874F87588B698B7A8B0E946729F1
:10229000B22FA32FF42FE52FCB01BF83A887F98797
:1022A000EA876B879C87ED84FE840F8518892989CE
:1022B0003A894B2F5A2F6F2F7E2F0E94BE2A8823D8
:1022C00061F10E945A25882311F40C94871982E247
:1022D00098E00E94E32180910F01806280930F01BA
:1022E00080911001807888678093100164E02596C2
:1022F0008EAD9FAD25970E94091E882371F080E75F
:1023000092E00E94E3218091060190910701830DE4
:10231000911D90930701809306012596EEADFFADC8
:10232000259735962596FFAFEEAF2597F5E0CF0EB2
:10233000D11C05E0A00EB11C25962EAD3FAD259712
:10234000255D314009F0C0CE87CD2B96AEADBFAD37
:102350002B978C9180FF0CC02996EEADFFAD29978D
:102360001182108213821282FD01319710821C9219
:1023700080910F0185FF1BC02996EEADFFAD299717
:1023800036962996FFAFEEAF29972B962EAD3FAD2F
:102390002B972A5F3F4F2B963FAF2EAF2B97E852DC
:1023A000F24069F08091800187FFE2CFCECF2B967B
:1023B000AEADBFAD2B978C9180FD4AC7DDCF80912C
:1023C000800187FF03C08F7B809380016396EEAD11
:1023D000FFAD63973497808185FF67C0282F220F58
:1023E000220F220F30E0220F232F221F330B639680
:1023F000AEADBFAD63976C91232B09F049C08295B8
:10240000807F90E0F6E095958795FA95E1F7009743
:1024100059F470E06196EEADFFAD6197808108E000
:1024200028E047E152E03EC08130910559F470E068
:102430006196AEADBFAD61978C9108E028E04FE0AA
:1024400052E030C0823059F470E06196EEADFFADDD
:102450006197808108E028E047E052E023C0809146
:10246000AA0670E080FD0AC06196AEADBFAD61976F
:102470008C9108E028E04FEE51E014C06196EEAD7B
:10248000FFAD6197808108E028E04FEF51E00AC07E
:1024900070E06196AEADBFAD61978C9108E028E029
:1024A00047EF51E090E00E9437206396EEADFFAD1C
:1024B000639735966396FFAFEEAF639761960EAD67
:1024C0001FAD61970B5F1F4F61961FAF0EAF6197F6
:1024D000E95DF14009F07ACF8091D70187FD08C00E
:1024E0000CEE11E0E12CF12CEAE0CE2ED12C78C0DC
:1024F00069EDC62E61E0D62E78EDE72E71E0F72E5D
:10250000A12CB12CF501E552FE4F808187FF59C007
:10251000E82FEF718E2F90E0FC013197EA30F10542
:1025200008F04FC0EA5AFF4FD6016C9170E00C944E
:102530007635F701808108E028E04FE951E03EC0A0
:10254000F701808108E028E047EE51E037C0F7014D
:10255000808108E028E04FED51E030C0F701808134
:1025600008E028E047ED51E029C0F701808108E04C
:1025700028E04FEC51E022C0F701808108E028E01C
:1025800047EC51E01BC0F701808108E028E04FEBE9
:1025900051E014C0F701808108E028E047EB51E0EA
:1025A0000DC0F701808108E028E04FEA51E006C045
:1025B000F701808108E028E047EA51E090E00E94BE
:1025C0003720F4E0AF0EB11C04E0C00ED11C14E0C3
:1025D000E10EF11C24E1A216B10409F093CF80CFE3
:1025E000F701EF50FE4F808180FF33C0D801129673
:1025F0008D919C911397B6010E946235FB01FF27D4
:10260000D8018D919C91B6010E946235CB0199272A
:10261000AC014F5F5F4F9F01BF0101970E943621C0
:10262000F80182819381B6010E946235FB01FF2788
:10263000D8018D919C91B6010E946235CB019927FA
:102640009F0121503109BF016F5F7F4FAC010E9494
:102650003621B6E0EB0EF11C0A5F1F4FECE3EE16DD
:10266000F10409F0BDCF8FEF71C684E00E94CD2444
:10267000882311F40C94A7061F821982BE016F5F94
:102680007F4FCE0107960E94A32469818F810E940B
:102690008F240C94A70610925A021092580210929E
:1026A00059020C9410089091D70180E489278093F7
:1026B000D70132C98091D8018093D5010C94A50926
:1026C000833310F00C94050A0C94FB093091D90166
:1026D0003093D6010C94820A3091D8013093D50101
:1026E0000C948A0A9091D70180E489278093D701BE
:1026F0000C94300B853009F038CA8091800187FF37
:1027000029C333CA8CE08E9DF0018F9DF00D1124FA
:10271000ED58FD4FE4912E2F30E0F90131969F01E5
:10272000FF0F440B550B60E070E0CB010E942E1CA4
:10273000672B682B692B09F445C0F2C9F801E658EC
:10274000FD4FE491809183018E1708F00ECAC701F6
:102750006AE070E00E9462358B01112761E0C62EAD
:1027600061E0D62EA12CB12C18019CE1290E311C60
:10277000F601EC57FF4F808185FD0BC0AFEFAA1A21
:10278000BA0AB5E0CB0ED11CE0E1AE16B10481F778
:10279000ECC9F601E957FF4F208127FDEFCF30E06C
:1027A000221633065CF78295807F90E056E095957F
:1027B00087955A95E1F78230910501F3039709F067
:1027C00076C1DCCF2D2D30E02F5F3F4F032E000C64
:1027D000440B550B61E070E080E090E0D11003C045
:1027E00060E070E0CB010E942E1C762E202F30E09E
:1027F0002F5F3F4F032E000C440B550B61E070E040
:1028000080E090E0011103C060E070E0CB010E9425
:102810002E1C662ED62ED70C8D2D612F0E94423590
:1028200021E0911101C020E08D2D612F0E944235E1
:10283000922E980E692D70E089E390E00E94623537
:102840001B01812C2CE02E9DC0012F9D900D112489
:102850009C012B583D4F2D963FAF2EAF2D97AC01CD
:1028600049585D4F65965FAF4EAF6597891408F084
:1028700057C9882D90E00196829DB001839D700D0F
:10288000929D700D11249B0128503109032E000CDC
:10289000440B550B62197309072E000C880B990B1A
:1028A0000E942E1C06E0060F8D2D612F0E944235DE
:1028B000992399F02D2D1D1508F4212F30E02F5F5D
:1028C0003F4F032E000C440B550B692F70E080E046
:1028D00090E00E942E1CA62E01C0A12EDA18E9E875
:1028E000EE2EE1E0FE2EC12C9701245031092796EF
:1028F0003FAF2EAF2797D9018C9185FDC7C06110DE
:1029000005C021E030E040E050E004C022E030E0CB
:1029100040E050E061E070E080E090E0772019F066
:1029200060E070E0CB010E942E1CB62E70E8572E9E
:102930005C0CBB2021F0B1E0BB1649F140C02D96E4
:10294000EEADFFAD2D97249130E02F5F3F4F032E6A
:10295000000C440B550B60E070E0CB010E942E1C74
:10296000462EF3E06F13D9C42D96EEADFFAD2D9733
:10297000249130E02F5F3F4F032E000C440B550B8A
:1029800060E070E0CB010E942E1C462EC6C4659606
:10299000EEADFFAD6597249130E02F5F3F4F032EE2
:1029A000000C440B550B60E070E0CB010E942E1C24
:1029B000462EF1E0902F4F1631F020E011C0902FFD
:1029C00020E0412C0DC021E00BC031E0431223C0B8
:1029D00062E070E080E090E00E940A1C262F902FB9
:1029E000F70131975082D7019C933297908364E628
:1029F00070E080E090E0A1962FAFA1970E940A1CA2
:102A0000F70132976083A1962FADA197B1E0BB1279
:102A100013C083E012C0F70131975082F7010083A1
:102A20003397008364E670E080E090E00E940A1C27
:102A3000F7013297608320E080E09B2D9295907F94
:102A40009062292B8295880F880F807C822B942D91
:102A5000990F990F892B2796EEADFFAD27978083AD
:102A6000AA94BB2021F0F1E0BF1641F00DC023E095
:102A7000421611F038E0C30E7A9406C043E04416C3
:102A800011F05AE0C50E6A94AA2049F065E0E60EFE
:102A9000F11C79EDE71671E0F70609F025CF80917A
:102AA00084018C1510F4C09284018394DFCE809150
:102AB00081012091820130E0280F311D2F5F3F4FAF
:102AC000032E000C440B550B60E070E0CB010E941C
:102AD0002E1C2B013C01672B682B692B09F04ECE75
:102AE000E1EFF1E0E12CF12C808180FD29C1C401EE
:102AF0006AE070E00E94623577279B01255F3F4FB7
:102B0000032E000C440B550B623071053CF06250F3
:102B10007109072E000C880B990B03C060E070E070
:102B2000CB010E942E1CD62E9801255F3F4F032E0D
:102B3000000C440B550B0230110544F02801F2E063
:102B40004F1A5108052C000C66087708C301B20122
:102B50000E942E1CC62E85E08A9D80018B9D100D43
:102B600011240F5F1E4FF801E857FF4FB08062E05D
:102B700070E080E090E00E940A1CDC01CB0103962B
:102B8000A11DB11D6B2D680FF801E957FF4F8C2D6A
:102B900090E0A62EB12C0D2D10E02AE0629F40019E
:102BA0001124D61608F05EC0D0806D2D70E0681B31
:102BB000790B072E000C880B990B0E9484339B0124
:102BC000AC01B501601B710B072E000C880B990B33
:102BD000A1962FAFA1976E963FAF6E976F964FAFAE
:102BE0006F97A0965FAFA0970E948433A1962FADF8
:102BF000A1976E963FAD6E976F964FAD6F97A0966B
:102C00005FADA0970E947632DA9426E02E9D800177
:102C10002F9D100D11240F5F1E4FF801E551FF4F3E
:102C20004AE0D49E90011124318320833296918210
:102C3000808278015FEEE50EF11C20E030E044E395
:102C400053E40E9483342CED3FE049E450E40E94B9
:102C5000DA320E945333D7016C93F801E051FF4FF1
:102C600083E066C0D0806D2D70E0681B790B072E65
:102C7000000C880B990B0E9484339B01AC01B801B6
:102C80006A197B09072E000C880B990BA1962FAFB0
:102C9000A1976E963FAF6E976F964FAF6F97A096C6
:102CA0005FAFA0970E948433A1962FADA1976E9637
:102CB0003FAD6E976F964FAD6F97A0965FADA097A3
:102CC0000E94763220E030E044E353E40E948334F3
:102CD0002CED3FE049E450E40E94DA322B013C0144
:102CE00020E030E0A9010E94763418161CF4C301DC
:102CF000B20103C0C301B20190580E945333DA9469
:102D000026E02E9DC0012F9D900D11248F5F9E4FB8
:102D1000FC01E551FF4FBAE0DB9E900111243183A5
:102D2000208332969182808232966083319681E050
:102D30008083809183018F5F809383010C94B50D14
:102D40002FEFE21AF20A36963AE0E316F10409F0A0
:102D5000CBCE14CD00910D0110910E01E0900B012E
:102D6000F0900C012091080121505CE0259F90011A
:102D70001124F901E258FD4FE491809183018E17EF
:102D800010F00C94B50DF901E358FD4F249130E09B
:102D9000F90131969F01FF0F440B550B60E070E085
:102DA000CB010E942E1C672B682B692B11F00C9411
:102DB000B50DEAE0F0E0C801BF010E9462359B0159
:102DC0003327C701BF010E946235CB0199272C3000
:102DD00031054CF029014CE0441A5108052C000C37
:102DE0006608770803C0412C512C32018C309105C4
:102DF0007CF04C015CE0851A91087401990C000B81
:102E0000110B2F96ECAEFDAE0EAF1FAF2F9706C085
:102E10002F961CAE1DAE1EAE1FAE2F9708ED11E013
:102E200027961FAF0EAF2797C12CD12C8C01045CC5
:102E30001F4F65961FAF0EAF6597275E3F4F790115
:102E4000330F000B110B6996ECAEFDAE0EAF1FAF4A
:102E5000699749967C01990F000B110B6D96ECAEAA
:102E6000FDAE0EAF1FAF6D9786010F5F1E4FF801CD
:102E7000E652FF4F808187FF18C186FF16C1279653
:102E8000AEADBFAD27978C9190E06596EEACFFACF0
:102E90006597E816F9060CF008C1E1EFF1E0E12CC6
:102EA000F12C808180FDF8C069962CAD3DAD4EAD12
:102EB0005FAD6997C301B2010E942E1CB62E6D96BC
:102EC0002CAD3DAD4EAD5FAD6D972F966CAD7DAD2C
:102ED0008EAD9FAD2F970E942E1C362EF801E85222
:102EE000FF4F008168E070E080E090E00E940A1CE3
:102EF000060F2796AEADBFAD27971C91832D90E0AE
:102F0000BAE00B9F10011124612F70E0681B790B50
:102F1000072E000C880B990BB01608F058C00E94C1
:102F200084339B01AC01602F70E06B197109072E8F
:102F3000000C880B990BA1962FAFA1976E963FAF0F
:102F40006E976F964FAF6F97A0965FAFA0970E9456
:102F50008433A1962FADA1976E963FAD6E976F9675
:102F60004FAD6F97A0965FADA0970E9476322FEF7E
:102F7000210FE6E0EE9D8001EF9D100D11240F5F03
:102F80001E4FF801E551FF4F4AE0249F90011124A4
:102F90003183208332963182208278015FEEE50E04
:102FA000F11C20E030E044E353E40E9483342CED34
:102FB0003FE049E450E40E94DA320E945333D701E3
:102FC0006C93F801E051FF4FB3E0B0835FC00E9403
:102FD00084339B01AC016B2D70E0601B7109072EDF
:102FE000000C880B990BA1962FAFA1976E963FAF5F
:102FF0006E976F964FAF6F97A0965FAFA0970E94A6
:103000008433A1962FADA1976E963FAD6E976F96C4
:103010004FAD6F97A0965FADA0970E94763220E0EB
:1030200030E044E353E40E9483342CED3FE049E474
:1030300050E40E94DA324B015C0120E030E0A9014B
:103040000E94763418161CF4C501B40103C0C501F2
:10305000B40190580E9453331150E6E0EE9DC00138
:10306000EF9D900D11248F5F9E4FFC01E551FF4FA6
:103070000AE0109F9001112431832083329631821F
:10308000208232966083319611E010838091830113
:103090008F5F8093830109C02FEFE21AF20A369600
:1030A0003AE0E316F10409F0FCCE44E0C40ED11C72
:1030B00027960EAD1FAD27970C5F1F4F27961FAFAA
:1030C0000EAF279714E1C116D10409F0CDCE0C94B0
:1030D000B50DF1011082D4011C92F6011082D501C8
:1030E0001C9280E792E00E94E3218091060190917A
:1030F0000701850D911D90930701809306014110F2
:1031000005C00E94BB2181110C945D0F0E94782A9A
:103110000C945D0F0E94782A0C94EA0FD1011C9246
:10312000F4011082D6011C92F501108280E792E032
:103130000E94E3218091060190910701850D911D68
:103140009093070180930601411005C00E94BB21A6
:1031500081110C9447100E94782A0C94471043E088
:103160000C9487106FE571E080E090E00E940A1CEB
:10317000672B682B692BC1F480910F018C708C3008
:1031800011F512C0D6019C91F50180812091590260
:1031900027FD41C8893708F088E780935A02909349
:1031A00058022092590237C86DE271E080E090E049
:1031B0000E940A1C672B682B692BC9F480911001AF
:1031C00087FF2FC014C0D6019C91F501808120910A
:1031D000590227FD20C8893708F088E780935A02F2
:1031E00090935802FAECF09359020C940B11259627
:1031F000AEADBFAD25978C91880F880F880F90E0FA
:10320000880F892F881F990B813011F445E001C088
:1032100043E0D6016C91F50180810E94BF290C9496
:103220000B11F6019081D5018C912091590227FF55
:1032300002C00C940B11893708F088E780935A027A
:1032400090935802BAEEEB2EE09259020C940B11B7
:103250000E9467297B0129833A834B835C836D83BA
:10326000FE822996EEADFFAD299780819181B8014C
:103270000E946235FB01FF272996AEADBFAD2997AD
:1032800012968D919C91139749815A812B813C8193
:10329000E417F5070CF470C84E0D511DE417F5073F
:1032A0000CF06AC8B8010E9462357727621773076D
:1032B0000CF462C82F0D311D621773070CF05CC847
:1032C0002996EEADFFAD29971182108213821282EA
:1032D0002B96EEADFFAD2B97319710822B96AEADAE
:1032E000BFAD2B971C920E945A25882381F082E261
:1032F00098E00E94E32180910F01806280930F018A
:1033000080911001807888678093100135C880EB28
:1033100094E00E94E01C85E019C0F2E04F1203C067
:10332000902F22E05DCB23E042124FCB69E770E0A3
:1033300080E090E00E940A1C562E96E423E050CBD9
:10334000883310F00C94050A0C94FB09C05ADF4F27
:103350000FB6F894DEBF0FBECDBFDF91CF911F91A6
:103360000F91FF90EF90DF90CF90BF90AF909F9024
:103370008F907F906F905F904F903F902F90089527
:10338000CF92DF92EF92FF920F931F93CF93DF9331
:103390006C017A018B01C0E0D0E0CE15DF0589F029
:1033A000D8016D918D01D601ED91FC910190F081D4
:1033B000E02DC6010995892B11F47E0102C02196EA
:1033C000ECCFC701DF91CF911F910F91FF90EF904C
:1033D000DF90CF9008953FB7F8948091A00290912C
:1033E000A102A091A202B091A30226B5A89B05C09C
:1033F0002F3F19F00196A11DB11D3FBFBA2FA92F74
:10340000982F8827820F911DA11DB11DBC01CD01F0
:1034100042E0660F771F881F991F4A95D1F70895DC
:103420000895089580E090E008950E947C350C9402
:103430007D310F931F93CF93DF93FC01268125FFEE
:1034400009C04091AA065091AB0643705527452B01
:1034500009F0A8C0EC01822F90E036E095958795A1
:103460003A95E1F7813041F58C819D810A811B817C
:1034700024FF11C02AE030E0B9010E946235FB014F
:10348000FF27C801B9010E946235862F08E028E0B5
:1034900043E353E02AC02AE030E0B9010E946235DC
:1034A000FB01FF27C801B9010E946235862F08E0A1
:1034B00028E04BE253E019C0813008F049C08C810C
:1034C0009D810A811B8124FF32C02AE030E0B901CE
:1034D0000E946235FB01FF27C801B9010E946235D5
:1034E000862F08E028E043E453E0BF0190E00E940B
:1034F00037208F8187FF56C08C819D81EAE0F0E004
:10350000BF010E9462359B0133272C5F3F4F8A81A8
:103510009B81BF010E946235CB01992748E0B90128
:103520000496DF91CF911F910F910C94551F2AE0C3
:1035300030E0B9010E946235FB01FF27C801B901E3
:103540000E946235862F08E028E04BE353E0CDCFA0
:10355000823079F68C819D810A811B8124FF11C004
:103560002AE030E0B9010E946235FB01FF27C80163
:10357000B9010E946235862F08E028E043E253E05B
:10358000B4CF2AE030E0B9010E946235FB01FF2789
:10359000C801B9010E946235862F08E028E04BE19E
:1035A00053E0A3CFDF91CF911F910F910895EF9238
:1035B000FF920F931F93CF93DF931F92CDB7DEB788
:1035C0007C01FC0100811181C80169830E947D3169
:1035D0006981681719F0C8010E948531C7010F90F1
:1035E000DF91CF911F910F91FF90EF900895EF928F
:1035F000FF920F931F93CF93DF9300D0CDB7DEB729
:103600008C017B01FB0160819A838983CE01019645
:103610000E94D71AF70161810F5F1F4F1A83098338
:10362000CE0101960E94D71AC7010F900F90DF912B
:10363000CF911F910F91FF90EF9008950F931F93DB
:10364000CF93DF9300D0CDB7DEB78B01FB01608154
:103650009A838983CE0101960E94D71AC8010F90E0
:103660000F90DF91CF911F910F910895CF93DF932A
:1036700000D0CDB7DEB79A838983CE0101960E9430
:10368000D71A0F900F90DF91CF910895EF92FF928C
:103690000F931F93CF93DF93CDB7DEB72C970FB661
:1036A000F894DEBF0FBECDBF9A8789876B874C87A2
:1036B0001E821D82BE016B5F7F4F84E290E00E94FC
:1036C000CF211C821B82BE016D5F7F4F88E290E09C
:1036D0000E94CF211A821982BE016F5F7F4F8CE258
:1036E00090E00E94CF2189859A852D813E818217A5
:1036F0009307D8F182E290E00E94171AE82E83E245
:1037000090E00E94171AF82E86E290E00E94171AA5
:10371000082F87E290E00E94171A182FBE01655FFC
:103720007F4F82E290E00E941E1BBE01645F7F4FCC
:1037300083E290E00E941E1BBE01675F7F4F84E220
:1037400090E00E94F71A6E2D86E290E00E94361BF0
:103750006F2D87E290E00E94361B8D819E819887B5
:103760008F83BE01695F7F4F1CC02B813C81821714
:10377000930768F186E290E00E94171A082F87E20B
:1037800090E00E94171A182F6B8586E290E00E9445
:10379000361B6C8587E290E00E94361BBE01675F96
:1037A0007F4F88E290E00E94F71A602F8AE290E053
:1037B0000E94361B612F8BE290E00E94361B8B81AA
:1037C0009C8198878F83BE01695F7F4F12C02981DA
:1037D0003A818217930788F06B858AE290E00E9415
:1037E000361B6C858BE290E00E94361BBE01675F42
:1037F0007F4F8CE290E00E94F71A2C960FB6F89457
:10380000DEBF0FBECDBFDF91CF911F910F91FF9013
:10381000EF900895CF93DF9300D000D0CDB7DEB7FF
:10382000611571058105910579F09B01AC016983F2
:103830003A834B835C830E943A3129813A814B81E0
:103840005C810E94933103C060E070E0CB010F9077
:103850000F900F900F90DF91CF910895CF92DF924C
:10386000EF92FF920F931F936217730784079507D8
:1038700084F489019A016B017C01C901B8016C19BA
:103880007D098E099F090E940A1C6C0D7D1D8E1DED
:103890009F1D1F910F91FF90EF90DF90CF900895A3
:1038A0008F929F92AF92BF92CF92DF92EF92FF9250
:1038B0006B017C010E94EB194B015C01C114D10426
:1038C000E104F104F1F00E94EB19DC01CB0188194D
:1038D0009909AA09BB09883E9340A105B10570F377
:1038E00021E0C21AD108E108F10888EE880E83E0D1
:1038F000981EA11CB11CC114D104E104F10419F7F4
:10390000DDCFFF90EF90DF90CF90BF90AF909F9072
:103910008F9008952FB7F89460919C0270919D024A
:1039200080919E0290919F022FBF08951F920F9247
:103930000FB60F9211242F933F938F939F93AF93C2
:10394000BF9380919C0290919D02A0919E02B091A4
:103950009F0230919B0223E0230F2D3720F4019624
:10396000A11DB11D05C026E8230F0296A11DB11DA2
:1039700020939B0280939C0290939D02A0939E02B1
:10398000B0939F028091A0029091A102A091A20207
:10399000B091A3020196A11DB11D8093A002909346
:1039A000A102A093A202B093A302BF91AF919F91F5
:1039B0008F913F912F910F900FBE0F901F901895F0
:1039C000BC0180E090E00C94501C8FB18095807F0A
:1039D000669B88601C9B8460089560387105D0F4F4
:1039E00040345105B8F4ECE5F3E080E1849FD00168
:1039F000A0781124A60F4770E40FF11D8491A955FA
:103A0000BD4F222319F06C91862B03C080956C91D9
:103A100086238C9308952F923F924F925F926F92DC
:103A20007F928F929F92AF92BF92CF92DF92EF924E
:103A3000FF920F931F93CF93DF9300D01F92CDB7C8
:103A4000DEB7282F80ED820F8A30F0F08FEB820FE7
:103A50008A3108F486C08FE9820F8A3108F484C065
:103A60002E3261F450E04C5F5F4F70E06F5F7F4F2C
:103A700021E087EA96E00E94ED1C71C081E02032CF
:103A800009F475C080E073C080E090E330E0291B4A
:103A90003109220F331FF901E80FF11DCF01ED525B
:103AA000FD4FA490FC01EC52FD4FE49127E0C22EA3
:103AB000D12C37E0232E042F10E0E62EF12CB12C70
:103AC0004BEA342E59E0852E912C8E2F90E09B836B
:103AD0008A83380192E0690E711C63E0462E512CF6
:103AE000322D3C19C5010C2C02C0959587950A947E
:103AF000E2F7282F2170339D812D11248695A8018E
:103B0000480F511D982F990F890F932F981BB701BC
:103B1000690F711D87EA96E039830E94ED1C398197
:103B20003730C9F02A813B810C2C02C0359527958E
:103B30000A94E2F72170C4018C199D09B2010E9418
:103B40006235A301460F571FB701680F791F87EA37
:103B500096E00E94ED1CE1E0CE1AD10808F681E063
:103B600006C084E191E492CF84E191E68FCF0F907B
:103B70000F900F90DF91CF911F910F91FF90EF90D9
:103B8000DF90CF90BF90AF909F908F907F906F907D
:103B90005F904F903F902F900895CF93DF9300D088
:103BA00000D000D0CDB7DEB7FC014081440F440FF8
:103BB000440F50E0440F452F441F550B948123813F
:103BC000892F90E041110CC0019630E02E5F3F4FED
:103BD0003A8329839C838B8384E08D8386E007C0AE
:103BE00030E03A8329839C838B8388E08D838E83A6
:103BF00029813A814B815C816D817E8180E090E0FA
:103C000026960FB6F894DEBF0FBECDBFDF91CF91E1
:103C10000895FC018081282F2295269526952370F2
:103C200091E0920F691758F46095960F9295990F4D
:103C3000990F907C8F73982B908380E00895108269
:103C4000138214821182128281E008950F931F93D0
:103C5000CF93DF9300D000D000D0CDB7DEB7FC010A
:103C60002481207730E084E0359527958A95E1F727
:103C7000828193810190F081E02D2230B9F050F5DE
:103C8000222341F1213031F50AE010E0B8010E9411
:103C900062359B013327CF01B8010E946235772737
:103CA0007A8369833C832B8385E011C00AE010E0AE
:103CB000B8010E9462359B013327CF01B8010E94F1
:103CC000623577277A8369833C832B8383E08D83F6
:103CD00082E013C00AE010E0B8010E9462359B0147
:103CE0003327CF01B8010E94623577277A83698331
:103CF0003C832B8384E08D8381E08E8329813A810C
:103D00004B815C816D817E8180E090E026960FB6CC
:103D1000F894DEBF0FBECDBFDF91CF911F910F9101
:103D20000895FC018481982F9077903139F4982F71
:103D30009F70691718F4861B84830895118210827E
:103D400013821282148208950F931F93CF93DF93EF
:103D5000162F042FEC01FE018491882349F0402F97
:103D6000612F0E940B1D2196882311F01C5FF3CF59
:103D7000DF91CF911F910F910895813039F018F0A4
:103D8000823039F0089586E593E005C081E593E03F
:103D900002C08BE493E00C94A41EDF92EF92FF929A
:103DA0000F931F93CF93DF93CDB7DEB728970FB64E
:103DB000F894DEBF0FBECDBFE62ED42E4AE08E01B2
:103DC0000F5F1F4FB8010E944831F12CF80101909C
:103DD0000020E9F73197E01BF10B8F2D90E08E1753
:103DE0009F0770F4F801E80FF91F4D2D6E2D8081AB
:103DF0000E940B1D882321F084E0E80EF394E6CFA7
:103E000028960FB6F894DEBF0FBECDBFDF91CF91DD
:103E10001F910F91FF90EF90DF90089580910F0117
:103E200090E026E0959587952A95E1F7813021F07D
:103E3000823021F484E0089582E0089580E00895BE
:103E40009C01240F311D1216130674F5803891055C
:103E50005CF5FC0197FF02C0E0E0F0E0213831059D
:103E600014F020E830E02E1BAB014770552781E0AD
:103E700001C0880F4A95EAF777FF02C0695F7F4F5C
:103E800093E0759567959A95E1F77695762F662775
:103E900077956795E60FF71FE955FD4F215020F004
:103EA0009081982B9193FACF08952F923F924F9241
:103EB0005F926F927F928F929F92AF92BF92CF92BA
:103EC000DF92EF92FF920F931F93CF93DF9300D077
:103ED00000D0CDB7DEB78C017B01242F30E03C83CE
:103EE0002B8381E090E05C01A21AB30AC90191958D
:103EF000819591091C01220C331CA901460F571F03
:103F000021E0B80187EA96E00E94ED1CA7018B81B1
:103F10009C81481B590B21E0B80187EA96E00E947A
:103F2000ED1C6B817C81600F711F21E0A70187EA86
:103F300096E00E94ED1CB801EB81FC816E1B7F0BAB
:103F400021E0A70187EA96E00E94ED1CC12CD12C4C
:103F500021E030E03A8329832B813C81C216D306CD
:103F60000CF06EC0B7FC0AC08B819C8101979C83CA
:103F70008B8392E0290E311CA20CB31CEFEFCE1AFA
:103F8000DE0A29813A812E5F3F4F3A832983A20EB0
:103F9000B31E3601600E711E21E08B809C808E0C5A
:103FA0009F1CA401B30187EA96E00E94ED1C280142
:103FB0004C185D0821E0A401B20187EA96E00E9456
:103FC000ED1C21E047018B819C81881A990AA4018C
:103FD000B30187EA96E00E94ED1C21E0A401B20142
:103FE00087EA96E00E94ED1C46018E0C9F1C21E0A2
:103FF000A4016B807C80600E711EB30187EA96E09D
:104000000E94ED1C21E0A4012801EB81FC814E1AE5
:104010005F0AB20187EA96E00E94ED1C47018C1806
:104020009D0821E0A401B30187EA96E00E94ED1CFF
:1040300021E0A401B20187EA96E00E94ED1C8CCF3A
:104040000F900F900F900F90DF91CF911F910F91D4
:10405000FF90EF90DF90CF90BF90AF909F908F90A8
:104060007F906F905F904F903F902F9008952F9288
:104070003F924F925F926F927F928F929F92AF92F8
:10408000BF92CF92DF92EF92FF920F931F93CF9345
:10409000DF93CDB7DEB728970FB6F894DEBF0FBE1B
:1040A000CDBF5A01822E912C9C01280D391D37FD60
:1040B000C4C0803891050CF0C0C09B01200F311D99
:1040C00037FDBBC0603471050CF0B7C0AB0177FFA2
:1040D00004C044275527461B570B477055279B01A3
:1040E00077FF02C0295F3F4FE3E035952795EA95BA
:1040F000E1F777FF08C02150310968E070E0DB018B
:10410000A41BB50BAD01602F66956695669570E0B2
:10411000077011F06F5F7F4FDB01A20FB31FBA83EF
:10412000A98339017694762C662477946794680E77
:10413000791EE12CF12C00E010E02301B0E84B0ED9
:10414000511C68E070E0DB01A41BB50BBC83AB83A2
:1041500069817A812617370709F46FC02830310545
:1041600009F46BC02F3FBFEF3B070CF45BC0B201FB
:10417000600F711FDB01A955BD4FBE83AD83D80110
:10418000A60DB71DA955BD4F6C0160E070E0681524
:1041900079050CF047C0E0E8CE16D10409F442C01E
:1041A000D7FC34C02F3FFFEF3F0709F442C0FB01AB
:1041B000EE0DFF1DEA0DFB1DE491042E01C0EE0F74
:1041C0000A94EAF73C90E329EC9341155105F1F08C
:1041D00027303105D9F0FB01EE0DFF1DEA0DFB1D67
:1041E000E4912E2E312CF1010B8002C0F595E7955C
:1041F0000A94E2F7F887EF83ED81FE813080EF814A
:10420000F885E3291F01ED81FE8120826F5F7F4FDA
:10421000ED81FE813196FE83ED83FFEFCF1ADF0A39
:104220001196B5CF2F5F3F4F00581F4FE80CF91C78
:104230008FCF4115510579F6E9CF28960FB6F8943E
:10424000DEBF0FBECDBFDF91CF911F910F91FF90C9
:10425000EF90DF90CF90BF90AF909F908F907F9026
:104260006F905F904F903F902F9008955F926F9264
:104270007F928F929F92AF92BF92CF92DF92EF92F6
:10428000FF920F931F93CF93DF93EC018B017A0181
:10429000A901461B570B57FF03C051954195510982
:1042A000C7018C1B9D0B97FF03C0919581959109C8
:1042B000552453948417950714F0512C0AC09E2D51
:1042C0008F2D7901292F382F9C2F8D2FE801092F51
:1042D000182FEC16FD0654F4902F812F8901292FF9
:1042E000382F9C2F8D2FE701E92EF82E37016C1AFD
:1042F0007D0A5901A01AB10AB7FE03C0B194A19476
:10430000B108630177FE03C08FEFC81AD80AD594AD
:10431000C7940217130714F08FEF01C081E0882EB5
:10432000880F9908EC16FD06B4F021E0552019F02D
:10433000AE01B80102C0A801BE0187EA96E00E9462
:10434000ED1CCA18DB08D7FE04C0080D191DC60CE9
:10435000D71C2196E7CFDF91CF911F910F91FF904E
:10436000EF90DF90CF90BF90AF909F908F907F9015
:104370006F905F9008958091D70187FF0CC080E017
:1043800090E0FC01E552FE4F208127FD06C0049617
:1043900084319105B1F780E0089581E008950F938D
:1043A0001F93CF93DF938C01EB010E947D318883B3
:1043B000C80101960E947D318983CE01DF91CF91A2
:1043C0001F910F91089522E02093A60220E42093EC
:1043D000C0009093BF008093D10008950F931F9366
:1043E000CF93DF93C4E2D1E00AE010E08C8187FF35
:1043F000ACC0807790E024E0959587952A95E1F709
:10440000823009F44AC028F4882331F08130B9F0B1
:104410009CC0853008F099C08A819B81B8010E94B8
:1044200062359B01332788819981203431050CF056
:104430008CC0B8010E946235862F44E029C08A8171
:104440009B81B8010E9462359B0133278881998145
:10445000203431054CF4B8010E946235862F45E0C6
:10446000B90190E00E94201F8A819B81B8010E94BF
:1044700062359B0133272F5F3F4F8881998120341C
:1044800031050CF062C0B8010E946235862F45E00C
:10449000B90190E00E94201F58C08A819B81B80119
:1044A0000E946235FB01FF27319788819981B8010D
:1044B0000E94623577276F5F7F4F21E0AF0187EA67
:1044C00096E00E94ED1C8A819B81B8010E946235B2
:1044D0009B01332788819981203431054CF4B80140
:1044E0000E946235862F43E0B90190E00E94201FB0
:1044F0008A819B81B8010E9462359B0133272F5F1F
:104500003F4F88819981203431054CF4B8010E94D5
:104510006235862F43E0B90190E00E94201F8A8116
:104520009B81B8010E946235FB01FF27329688818A
:104530009981B8010E94623577276F5F7F4F21E034
:10454000AF0187EA96E00E94ED1C259681E0CE3708
:10455000D80709F04BCFDF91CF911F910F910895AC
:1045600080912301982F9F7029F09150807F892B93
:1045700080932301A8E2B1E0E4E2F1E08C9187FFAF
:104580003DC0807790E024E0959587952A95E1F7E6
:10459000833071F018F08430E1F030C08081918177
:1045A0004496863F24E0920724F59183808326C0B9
:1045B00080819181449691838083863F9440CCF49E
:1045C0008281938182309105A4F002979383828344
:1045D00015C080819181449691838083863F944069
:1045E00044F4828193810296938382838737924039
:1045F0002CF011821082138212821C92159635962D
:1046000081E0EE37F80709F0B9CF089580911001E5
:10461000982F9F7721F091508078892B08C0909136
:104620000F0195FF06C09F7D90930F0180788093C6
:1046300010018091AA069091AB066AE070E00E949A
:104640004E35892B31F490910F0180E189278093B9
:104650000F0108950F931F93CF93DF934091230190
:10466000942F9F7009F053C1942F990F92959695AE
:104670009770923009F4FAC0E8F4992309F461C004
:10468000913009F046C1885F0AE0809FC001112483
:104690001AE0619FE0011124695F2AE0629FB00186
:1046A0001124A8E2B1E0E4E2F1E020E031E851ECCD
:1046B00011EB30C0943009F46EC008F4A8C09530F6
:1046C00009F027C1C1E0C60F885F0AE0809FC001E2
:1046D00011241AE0C19FE00111246A5F2AE0629F61
:1046E000B0011124A8E2B1E0E4E2F1E020E031EC15
:1046F00051EBFCC091838083211112C0D383C2830C
:1047000047FD0CC03C9321E01596359601E0EE374D
:10471000F00791F00C9107FDF7CFECCF1C93F3CF8E
:104720007383628347FD02C05C9301C03C932130D8
:1047300051F740584093230180912301807F8A6084
:1047400063C0885F1AE0819FC0011124E8E2F1E0B4
:1047500050E071E8208127FD14C0513011F020E0B5
:1047600001C027E0260FDF01149711969C938E93CA
:104770001296CAE02C9F900111242D933C937083D4
:104780005F5F523029F0359601E0E238F00711F70B
:10479000407F4A60B9C0E8E2F1E020E030E090817B
:1047A000D901119697FD28C047FD02C091E001C0D4
:1047B00096E0690F885F55E0529FF001539FF00D1E
:1047C0001124EF5FFE4F1AE0819FC001112494A3D2
:1047D00083A32AE0629FB001112476A365A35A9FA8
:1047E000F0015B9FF00D1124EF5FFE4F81E882A383
:1047F00040584093230104C09D013596529779F6A5
:1048000080912301807F88608093230182C0E8E249
:10481000F1E020E030E09081D901119697FD20C0B1
:104820006D5F885F55E0529FF001539FF00D11249A
:10483000EF5FFE4FCAE08C9FC001112494A383A3B5
:104840000AE0609FB001112476A365A35A9FF0018E
:104850005B9FF00D1124EF5FFE4F84E982A304C03B
:104860009D0135965297B9F64F604EC0E8E2F1E0EF
:1048700020E030E09081D901119697FD20C06D5F56
:10488000885F55E0529FF001539FF00D1124EF5FB8
:10489000FE4F1AE0819FC001112494A383A32AE054
:1048A000629FB001112476A365A35A9FF0015B9F1C
:1048B000F00D1124EF5FFE4F82EA82A304C09D0138
:1048C00035965297B9F6407F48601EC0211112C03C
:1048D00091838083D383C2835C932F5F223091F0D6
:1048E0001596359601E0EE37F00761F01C9117FD43
:1048F000F7CFECCF213089F7918380837383628374
:104900003C93EBCF407F4C604093230102C080E09A
:1049100001C081E0DF91CF911F910F910895909197
:104920002301292F220F2295269527709F7828137F
:1049300004C06295607F962B03C08295807F982B80
:104940009093230108950F931F93CF93DF938C01CE
:10495000EB0120910F0130E086E0359527958A958F
:10496000E1F7213079F040F0223091F40E940E1FDF
:10497000F801808385E00BC00E940E1FF801808340
:1049800081E005C00E940E1FF801808383E08883C8
:10499000DF91CF911F910F9108952091AD062823AB
:1049A00029F49091AC06982381E009F480E0089501
:1049B000CF93DF93C1E0D1E08295880F880F807C90
:1049C0009E859F73892B8E870E940E1F8295807F04
:1049D0009AA19F78892B8AA3DF91CF910895109295
:1049E000230180E090E0FC01EF5FFE4F14A213A2D0
:1049F00016A215A217A205968A359105A1F708956A
:104A0000AF92BF92CF92DF92EF92FF920F931F93DC
:104A1000CF93DF93EC01062F8034910530F4462FBD
:104A2000BC0180E390E00E94201FBE01685F7F4FC1
:104A30006034710528F4402F80E390E00E94201F2D
:104A40005E0189E0A80EB11CD7FF02C0C0E0D0E033
:104A50007E01650181E4A816B1041CF080E4C82E33
:104A6000D12CEC14FD0464F421E0A70160E370E0B4
:104A700087EA96E00E94ED1C8FEFE81AF80AE9CF6A
:104A800010E0015D1F4FCC15DD054CF421E0AE01B7
:104A9000B80187EA96E00E94ED1C2196F4CFDF91E1
:104AA000CF911F910F91FF90EF90DF90CF90BF902B
:104AB000AF9008958091100187FF04C08F77809395
:104AC00010010AC080910F01982F937039F0915016
:104AD0008C7F892B80930F0181E0089580E00895F9
:104AE000FC0180910A07811103C08FEF9FEF0895A9
:104AF0009FB7F89482E08093E9002091F20030E0C3
:104B00001216130614F421E030E02115310559F096
:104B1000289884E6809309078091F1008083809132
:104B2000F200882319F09FBFC90108958BE6809396
:104B3000E800F9CF2FB7F89483E08093E9009091D3
:104B4000E800892F807295FF04C09091F20080E404
:104B5000891B2FBF0895CF93DF931F92CDB7DEB788
:104B60006983DC01ED91FC910280F381E02D41E04D
:104B700050E0BE016F5F7F4F09950F90DF91CF919D
:104B8000089583E08093E9008091F200882319F072
:104B90008AE38093E80008950E949A2590E00895A2
:104BA000CF93DF931F92CDB7DEB7FC018485958547
:104BB00097FD05C02FEF3FEF358724870BC0CE014F
:104BC00001960E947025019719F4898190E002C036
:104BD0008FEF9FEF0F90DF91CF9108950F931F9369
:104BE000CF93DF931F92CDB7DEB78C01FC01848594
:104BF000958597FF0EC0CE0101960E947025019702
:104C000019F4298130E002C02FEF3FEFF80135871A
:104C10002487F801848595850F90DF91CF911F91AE
:104C20000F910895FC018485958597FD0BC09FB772
:104C3000F89482E08093E9008091F2009FBF90E0B9
:104C4000019608959FB7F89482E08093E9008091DF
:104C5000F2009FBF90E008958F929F92AF92BF9213
:104C6000CF92DF92EF92FF920F931F93CF93DF9338
:104C70005C016B017A0180916602882309F45BC0B4
:104C800080910A07882309F456C08091080780FFA5
:104C900005C08091E00082608093E000E70110E0B1
:104CA0000AEF83E0882E9AE3992E2097D9F10E948B
:104CB0009A2581110AC0015009F43DC061E070E0FD
:104CC00080E090E00E94501CF0CF282F30E0C21707
:104CD000D3070CF48C2F4FB7F8948092E900909191
:104CE000E80095FF1DC0282F30E0C21BD30BF60152
:104CF000982F915020F081918093F100FACFC20E4D
:104D0000D31E112319F09092E80009C08091E800A9
:104D100085FD06C09092E80011E0209709F010E0B0
:104D20004FBFC3CF1111C3CF5D9884E680930B07AB
:104D30001E141F0444F081E090E0F5019383828308
:104D400080E090E001C0C701DF91CF911F910F91EA
:104D5000FF90EF90DF90CF90BF90AF909F908F909B
:104D600008958091100781110DC082E080930C0797
:104D700084E080930D0710920F0710920E0781E0D8
:104D8000809310078CE097E008951F920F920FB662
:104D90000F9211248F939F938091E1009091E100F5
:104DA000937F9093E10083FF0FC01092E90091E0A0
:104DB0009093EB001092EC0092E39093ED00109230
:104DC0000A0798E09093F00082FF20C093E0909350
:104DD000E9009091F200992319F09AE39093E8008A
:104DE00090910B07992339F090910B079150909374
:104DF0000B07992389F190910907992339F0909134
:104E00000907915090930907992341F184FF10C03D
:104E10008091E2008E7E81608093E2008091E100CB
:104E20008F7E8093E100809108078E7E806111C0A3
:104E300080FF16C08091E2008E7E80618093E20048
:104E40008091E1008E7E8093E100809108078E7E44
:104E500081608093080704C05D9ACDCF289AD6CF91
:104E60009F918F910F900FBE0F901F9018951F92DA
:104E70000F920FB60F921124CF92DF92EF92FF9212
:104E80000F931F932F933F934F935F936F937F9352
:104E90008F939F93AF93BF93EF93FF93CF93DF9342
:104EA000CDB7DEB76C97DEBFCDBF1092E900809121
:104EB000E80083FFEDC168E0CE0145960E948E2B8D
:104EC00082EF8093E8008D8987FF05C09091E8000C
:104ED00090FFFCCF03C09EEF9093E800982F907650
:104EE00009F0C6C09E892F89188D91110CC0803899
:104EF00029F4809107078093F10002C01092F1001D
:104F00001092F10048C1422F50E0512B913051F4E2
:104F1000811141C14130510509F03DC18091070720
:104F20008D7F0BC0933061F4811135C14130510543
:104F300009F031C1809107078260809307072BC178
:104F4000953041F48091E80080FFFCCF20682093E9
:104F5000E30021C1963009F05FC0EB8CFC8C10920D
:104F6000E9001092050710920407123091F5109293
:104F70000307109202070E945C2B99E0BE016F5F4D
:104F80007F4FDB01E92F1D92EA95E9F799831A8398
:104F900091E09E8390EA98879AEF99872091040781
:104FA00030910507275F3F4F3C832B838D83109201
:104FB000E9001092050710920407F0920307E092AF
:104FC000020749E050E080E00E94352B0E945C2BF4
:104FD000E2C0F0920307E09202070E94B126DC01D2
:104FE0001296ED90FC901397E114F10409F4C0C0FF
:104FF000D701ED91FC910480F581E02DBE016B5E3F
:105000007F4FC7010995009719F00CF0C4C0C7C0C5
:10501000F701E084F184E8CF973009F4C0C09830FC
:1050200021F481E08093F100B6C0993009F0B3C05B
:10503000837009F0B4C0E4E9F2E081E021E036E3F6
:105040009081992361F08093E9002093EB00919186
:105050009093EC003093ED008F5F873089F78EE7F7
:105060008093EA001092EA008F8980930A0793C028
:105070008B8D9C8D1092E900109205071092040709
:105080009093030780930207898D811156C08E8902
:105090009D89913A59F4813209F081C047E050E08E
:1050A0006FE572E080E00E94352B75C0913209F007
:1050B00076C0833289F4888D90E0982F88272F89D5
:1050C000822BA0E0B0E080935B0290935C02A093FF
:1050D0005D02B0935E025FC0803269F48091E800A7
:1050E00082FFFCCF67E08FE592E00E948E2B8BEF72
:1050F0008093E80006C0823209F04DC08F8980930A
:10510000660280910607882319F0EEEFFAE002C0EC
:10511000E0E0F8E080915F0290916002A09161026E
:10512000B0916202803B9440A105B10509F07BC0BB
:105130008091660280FF93C076C00E94B126DC0198
:1051400012960D911C9113970115110541F1D8018B
:10515000ED91FC910190F081E02DBE016B5E7F4FDF
:10516000C8010995811117C0F80100851185ECCFA0
:10517000113009F44EC0133091F48F89882309F45B
:1051800045C0823081F440E860E18CE797E00E94FE
:10519000AF30882321F08EEF8093E80079C081E260
:1051A0008093EB0075C0813029F440E86BE080E724
:1051B00097E0EDCF833099F70E94B126DC0112967B
:1051C000ED90FC9013978E010F5F1F4F6801E11463
:1051D000F10479F0D701ED91FC910680F781E02D83
:1051E000B801C7010995080F111DF701E084F1848A
:1051F000EECFD8011C92F60101900020E9F731971B
:10520000BF016C197D0940E0C601C1CF6AE577E0B6
:1052100002C06EE577E06115710509F2FB0144916A
:1052200050E080E840CF0FB6F894A89580916000D8
:10523000886180936000109260000FBEA895EE3FD9
:105240002AE0F20739F08091FE0A9091FF0A9183DB
:105250008083A1CF1092FF0A1092FE0A9CCFEE3FEE
:105260008AE0F80731F0808191819093FF0A809362
:10527000FE0A87E797E7918380839BE088E10FB67A
:10528000F894A895809360000FBE9093600083CF40
:105290006C960FB6F894DEBF0FBECDBFDF91CF91F5
:1052A000FF91EF91BF91AF919F918F917F916F91FE
:1052B0005F914F913F912F911F910F91FF90EF9030
:1052C000DF90CF900F900FBE0F901F9018950F9307
:1052D0001F93CF93DF9300D000D000D0CDB7DEB7BF
:1052E00001E011E0D8011C968D919C911D972AE058
:1052F00030E0B9010E946235FB01FF273296D801E8
:105300001A968D919C911B97B9010E9462359B0161
:1053100033272D5F3F4F3A832983FC83EB833A8108
:105320004E2F5C8164E074E080E090E026960FB63A
:10533000F894DEBF0FBECDBFDF91CF911F910F91CB
:1053400008950F93FC01608341838381282B011111
:1053500002C0206C01C0206E238383818F71863050
:1053600030F4833040F4813040F08EE105C08B3062
:1053700020F488E201C083E282830F910895EAE27B
:10538000F2E020E030E0908197FD13C0F901EE0FCC
:10539000FF1F2E0F3F1F2F5F3E4FF901E95DFE4FAC
:1053A00080833196608331964295407F4168408387
:1053B00008952F5F3F4F33962031310521F708952F
:1053C00081E0809301011092080110920201109275
:1053D000030110920401109205011092070110922E
:1053E000060180E090E0FC01EF5FFE4F108A118A19
:1053F000128A039682319105B1F788E290E090938A
:105400000C0180930B0180E491E090930E01809356
:105410000D018FE080930F01109210010E94EF2484
:1054200010927E0110927F018FE180938001109293
:1054300081011092820120E030E0C9018F5F9E4F10
:10544000FC01EC57FF4F1082339610823196108288
:1054500033971082319610822B5F3F4F20353105F4
:1054600061F71092D70120E030E0C9018F5F9E4FB5
:10547000FC01E952FF4F1082319610823196108262
:10548000319610822C5F3F4F2431310571F7109215
:10549000830120E030E0C9018F5F9E4FFC01E551A0
:1054A000FF4F118210823296118210823296108242
:1054B000319610822A5F3F4F2C33310561F720E08F
:1054C00030E0C9018F5F9E4FFC01E95DFE4F108205
:1054D00031961082319610822D5F3F4F2033310577
:1054E00081F710925A0210925802109259020895B0
:1054F000EF92FF920F931F93CF93DF9381EE94E08F
:105500000E94E321CBEDD1E0888187FF15C045E003
:105510008E0102501109F80160817E01F3E0EF1A5B
:10552000F108F70180810E94BF29F7011082F8017C
:1055300010823196108218822496F1E0CF3EDF0768
:1055400019F71092D70120E030E0C9018F5F9E4F1C
:10555000FC01E952FF4F1082319610823196108281
:10556000319610822C5F3F4F2431310571F7DF9166
:10557000CF911F910F91FF90EF900895EF92FF92BE
:105580000F931F93CF93DF93CDB7DEB72C970FB652
:10559000F894DEBF0FBECDBF49835A836B837C83F3
:1055A0009E83EF82F88609871A872B873C87E981DB
:1055B000FA816B817C814F81588529853A85DF018D
:1055C000A80FB11D4A175B07A4F48B85480F511D26
:1055D000E417F50774F48E81AB01480F511D2417B1
:1055E00035073CF48C85280F311D81E06217730765
:1055F0000CF080E02C960FB6F894DEBF0FBECDBF46
:10560000DF91CF911F910F91FF90EF9008954091FE
:1056100004075091050720910207309103074217B4
:105620005307B4F49091E8009570E1F39091E8008D
:1056300092FD19C08093F1008091040790910507B5
:1056400001968F739927892B19F48EEF8093E800C8
:105650008091040790910507019690930507809328
:10566000040781E0089580E00895DF92EF92FF92B1
:105670000F931F93CF93DF93D82E8A017B01E40E03
:10568000F51EEB01CE15DF0571F0D7FE03C0FE015C
:10569000849101C088810E94072B21968111F2CF4D
:1056A0008FEF9FEF01C0C801DF91CF911F910F9144
:1056B000FF90EF90DF9008950F931F93CF93DF93A8
:1056C0001F92CDB7DEB782E0898342E450E06DE8F7
:1056D00077E080E80E94352B0E94B126DC0112960B
:1056E0000D911C9113970115110569F0D801ED91E9
:1056F000FC910280F381E02DBE016F5F7F4FC801F6
:10570000099597FF07C089810F90DF91CF911F9175
:105710000F910895F80100851185E5CF615030F0B3
:105720002091F100FC0120830196F8CF289884E6AF
:10573000809309070895CF93DF93CDB7DEB72897FD
:105740000FB6F894DEBF0FBECDBF789484B58260EB
:1057500084BD84B5816084BD85B5826085BD85B515
:10576000816085BD80916E00816080936E00109293
:10577000810080918100826080938100809181000E
:10578000816080938100809180008160809380009F
:10579000809191008260809391008091910081605E
:1057A000809391008091900081608093900080911F
:1057B000C10084608093C1008091C10082608093A9
:1057C000C1008091C10081608093C1008091C300BD
:1057D00081608093C3008091C00082608093C0008C
:1057E0008091C20081608093C20080917A008460C1
:1057F00080937A0080917A00826080937A00809111
:105800007A00816080937A0080917A00806880932A
:105810007A0010920A0710920707109208078091E9
:10582000D70081608093D70080EA8093D80089B543
:10583000806189BD89B5826089BD09B400FEFDCF54
:1058400061E070E080E090E00E94501C8091D80000
:105850008F7C80618093D8008091E000807F80936E
:10586000E0008091E1008E7E8093E1008DE08093E6
:10587000E200559A209AEEEFFFE7859194918B3FD5
:105880009C4D19F481E08093060781EC80937C00A5
:1058900085B1806F85B984B1877E84B984B1876E04
:1058A00084B95E9A5F988AB1806D8AB9769A6E984B
:1058B00081B3806F81BB899880B38D7080BB80E598
:1058C0008CBD81E08DBD85E090E00E94E01C5F9A78
:1058D00085E090E00E94E01C5E985C98E4E6F3E0CE
:1058E0008DE08E0F94919EBD00000DB407FEFDCF9C
:1058F00031968E13F7CF5C9A81E880936400809193
:105900006500816080936500109290008AE080932A
:1059100091001092C00088E08093C1001092C300F3
:105920001092BF001092CF0080E290E00E94171A00
:10593000883439F081E290E00E94171A823509F02C
:105940001BC3F7EACF2EF2E0DF2EA4EBAA2EB12C78
:10595000B0E88B2EB2E09B2E18EB612E7724739467
:1059600011E0312C7AE0E72EF12CE0E04E2EE0E061
:105970005E2E0E948A1C8091AF06962F981B892F5D
:105980009091B006992329F08093B1061092B00649
:10599000ECC29091AE06891740F48F5F891708F02A
:1059A000E4C213BF889513BEE0C21093B0066093A3
:1059B000AF068091AA069091AB0601969093AB0634
:1059C0008093AA0680919A02882331F081508093B7
:1059D0009A02882309F42EC38091A602882331F00D
:1059E00081508093A602882309F427C38091AC06D6
:1059F0008093AD060E94E51C8093AC06832DF601D2
:105A000081118FEF0024819381938193819303947B
:105A1000D1F7E091A5028E2F90E08830910508F033
:105A200097C2FC01E05AFF4F0C94763502E12EE656
:105A300044EE53E060E070E088E090E00E943720A0
:105A400049E162E38EED93E00E94A41E41E261E32E
:105A500088ED93E00E94A41E49E262E383ED93E0A7
:105A60000E94A41E41E362E38DEC93E00E94A41E19
:105A700049E362E383EC93E00E94A41E4BE360E001
:105A80008DEB93E00E94A41E80E10E94CD24009142
:105A90000001882331F081E0800F053060F085E05F
:105AA0000AC080E80E94CD24882359F08FEF800F30
:105AB000023008F481E08093000188E391E00E94C5
:105AC000E32180910001843099F480E20E94CD248A
:105AD000811105C080E40E94CD24882349F0809183
